:100000000C948B000C94F20F0C9419100C94B30008
:100010000C94B3000C94B3000C94B3000C94B30094
:100020000C94B3000C94B3000C94B3000C94B30084
:100030000C94B3000C94B3000C94B3000C94B30074
:100040000C9440100C94B3000C94B3000C94B300C7
:100050000C94B3000C94B3000C94B3000C94B30054
:100060000C94DC0B0C94B300BD02130227022E0289
:10007000AA023502400257025E0271027C0290021F
:10008000A302C203D203E203F3030104160424040F
:100090003D044D045B04690494047E0485068E06C9
:1000A0009706A306AA06B106B806EA06F106F80600
:1000B00000070C0709070000000800020100000308
:1000C00004070000000000000000010204081020E6
:1000D00040800102040810200102040810200404DA
:1000E00004040404040402020202020203030303E0
:1000F0000303000000002300260029000000000088
:10010000250028002B0000000000240027002A0002
:100110008008A308780E11241FBECFEFD8E0DEBF01
:10012000CDBF11E0A0E0B1E0EAE9F6E202C005903F
:100130000D92AC33B107D9F722E0ACE3B1E001C0D6
:100140001D92A038B207E1F710E0CBE8D0E004C080
:100150002197FE010E94EA11C838D107C9F70E9411
:10016000AE0F0C944B130C94000008958091500135
:100170008823E9F08091A201809352018AE0809364
:100180005301809158019091590101979093590121
:100190008093580120915B0130E0281739073CF02B
:1001A00080915A0190E090935901809358010895ED
:1001B000E4E6F1E014821582168217821086118619
:1001C000128613860895262F482F50E06A3030F0AB
:1001D000862F6AE00E94B61190E002C080E090E0B5
:1001E000FA01EC59FE4FDC01A25FBE4F8C91808377
:1001F0004F5F5F4F2A3010F4622F05C0822F6AE0F4
:100200000E94B611692F70E0FA01EC59FE4FDB0134
:10021000A25FBE4F8C91808308958DEA91E00E9489
:100220009A099C01843691054CF064E670E00E94C6
:10023000D611FB01E25FFE4F808102C08091060172
:1002400080936501C90164E670E00E94D6116AE0FE
:1002500070E00E94D611FB01E25FFE4F20812093E7
:100260006601FC01E25FFE4F808180936701089583
:1002700042E050E065EB70E081E00E94C00F83B780
:10028000817F846083BF83B7816083BF889583B794
:100290008E7F83BF81E00E94E00F10925001109288
:1002A0004F010E948A10609354017093550180930E
:1002B0005601909357010C945D018091500181117A
:1002C00014C080914F01853011F40C9438018F5F78
:1002D00080934F010E948A106093540170935501DE
:1002E000809356019093570108958091A2018093C5
:1002F00052018AE0809353018091580190915901F5
:100300000196909359018093580120915A0130E051
:10031000281739073CF480915B0190E090935901D4
:100320008093580108950F931F938091500181117C
:100330001DC080914F018530C9F00E948A10009144
:100340005401109155012091560130915701DC0163
:10035000CB01801B910BA20BB30B883B9B40A105EB
:10036000B10520F01F910F910C9438011F910F914E
:100370000895811104C080917801811123C080E12A
:100380000E94DC10BC01990F880B990B0E94B40EDF
:100390002CEE31E548E950E40E94180F0E947C0ED3
:1003A000613D27E0720744F420ED37E0C901861B68
:1003B000970B8233910514F482E390E090937A01D5
:1003C000809379010895813049F028F0823049F016
:1003D000833051F0089581E00C94B90182E390E0FC
:1003E00005C088EC90E002C080ED97E090937A0120
:1003F0008093790108958F929F92AF92BF92DF927E
:10040000EF92FF920F931F93CF93DF93E0914F01F1
:100410008E2F90E08D30910508F0B9C0FC01EC5CA6
:10042000FF4F0C94EA1180915001813019F46091D2
:10043000580102C06091A40180E00E94E300809115
:100440005001823009F483C06091A30115C08091EE
:100450000701809364018091060193C080910A0195
:10046000809364010E940D0192C06091A30180E01D
:100470000E94E3006091A20182E00E94E30087C035
:1004800080910C0180936401809106018093650145
:10049000809366018091580190915901FC01E25FBF
:1004A000FE4F9081909367010E94E30170C080919C
:1004B0000B01809364018091070124C08091500159
:1004C000853019F46091580102C06091600180E0AC
:1004D0000E94E300809150018630C9F16091610172
:1004E000CBCF8091080180936401E0916201F0E03C
:1004F000E25FFE4F818106C080910B018093640111
:1005000080911201809365018091060180936601BC
:10051000E0915801F0915901E25FFE4F808135C0B2
:1005200080915001893019F46091580102C06091A6
:100530005D0180E00E94E300809150018A3039F033
:1005400060915E0199CF64E180E00E94E3006091D8
:10055000580192CF809150018D3019F4609158016B
:1005600002C06091A60180E00E94E30080915001EA
:100570008C3069F36091A7017FCF80910601809351
:100580006401809365018093660180936701809187
:100590005001833019F080E00E94B901809151012F
:1005A000833011F08F5F01C080E080935101CCE176
:1005B000D1E08E01E12CF12CE0915101F0E0EC59F9
:1005C000FE4F608170E00E2C02C0759567950A940D
:1005D000E2F76170F80181918F010E945E11FFEFD7
:1005E000EF1AFF0A28E0E216F10431F780914F017B
:1005F0008B7F813059F480915101813039F46091C1
:10060000A2016170809123010E945E1180914F01CF
:10061000833049F480915101823029F461E0809166
:1006200023010E945E1180915001811111C08091BF
:10063000510190E0FC01EC59FE4F2085211152C080
:10064000FC01E85EFE4F60E080810E945E114AC0BE
:1006500008E611E08CE6E82E81E0F82EDD24D39444
:10066000F80181918F018823B9F10E948A1080904E
:10067000740190907501A0907601B0907701DC0133
:10068000CB0188199909AA09BB09F8018639910596
:10069000A105B10508F1D3820E948A1080907401EF
:1006A00090907501A0907601B0907701DC01CB01AC
:1006B00088199909AA09BB0986329240A105B1059A
:1006C00060F00E948A1060937401709375018093AA
:1006D00076019093770101C01382E016F10609F0CC
:1006E000BFCFA5CF8091790190917A010E94961099
:1006F000E0915101F0E0E85EFE4F61E080810E94F0
:100700005E1104E211E060E089910E945E110C1715
:100710001D07C9F780EB94E0DF91CF911F910F91F6
:10072000FF90EF90DF90BF90AF909F908F900C94D0
:1007300096108091A701823031F48091A8018370D6
:1007400069F08CE10895982F9170883018F4911118
:1007500007C002C0992321F08EE108958DE108952C
:100760008FE108950E94D800E09150018E2F90E013
:10077000FC013197ED30F10508F0EAC0EF5BFF4F67
:100780000C94EA118091A40190E090935901809318
:10079000580110925B0187E180935A0181E08093B8
:1007A0004F013FC08091A30190E090935901809345
:1007B000580110925B018BE380935A0181E0809392
:1007C0004F01C2C08091780190E0909359018093CD
:1007D000580110925B0183E080935A0186E0809378
:1007E0004F0181E0B3C080915F0190E09093590187
:1007F0008093580110925B0181E080935A0197E049
:1008000049C08091600190E0909359018093580114
:1008100010925B0187E180935A0188E080934F0139
:1008200081E080936801809369010895809161015E
:1008300090E0909359018093580110925B018BE3F3
:1008400080935A0188E07DC08091630190E0009020
:10085000620102C0959587950A94E2F78170992705
:10086000909359018093580110925B0181E080932D
:100870005A011092620199E00DC080915C0190E0F4
:10088000909359018093580110925B0181E080930D
:100890005A019AE090934F0159C080915D0190E018
:1008A000909359018093580110925B0187E18093E6
:1008B0005A018BE0B3CF80915E0190E09093590193
:1008C0008093580110925B0187E180935A018BE07D
:1008D00038C08091A80190E090935901809358010D
:1008E00010925B0183E680935A018CE080934F0164
:1008F00081E0809368018093690126C08091A60100
:1009000090E090935901809358010E94990391E0DF
:1009100090935B0180935A0184E080934F01909300
:1009200068019093690108958091A70190E09093E8
:1009300059018093580110925B018CE080935A0119
:1009400084E080934F0181E080936A0180936B0182
:100950000895EF92FF920F931F93CF93DF934091EF
:10096000A701C42FD0E02EE030E02C1B3D0BECE0C3
:10097000F0E0C901BF010E94C211A901481B590B37
:10098000CA01BF010E94C21177272091A80130E05F
:100990002053384F261B370B8CE0869FA001879F82
:1009A000500D11244C0F5D1F425051098FE1849F5F
:1009B0008001859F100D1124C0E9D1E0C901BE015D
:1009C0000E94C211A901481B590BCA01BE010E9415
:1009D000C211C9019695879596958795EB01C80F29
:1009E000D91F8091A601A901480F511DC40FD51F21
:1009F00054E6E52EF12CC901B7010E94C211A901EC
:100A0000481B590BCA01B7010E94C2119E01261B47
:100A1000370BC801BF010E94C211A801481B590B26
:100A2000CA01BF010E94C211C901860F971F67E06A
:100A300070E00E94C211811101C087E08093A5017E
:100A4000DF91CF911F910F91FF90EF9008950F9339
:100A50001F93CF93C82F0E948A100091A901109173
:100A6000AA012091AB013091AC01DC01CB01801BCC
:100A7000910BA20BB30B8C329140A105B10510F480
:100A8000CC2371F082EA91E00E94E3080E948A1070
:100A90006093A9017093AA018093AB019093AC017C
:100AA000CF911F910F910895EF92FF920F931F9393
:100AB000CF93DF931F92CDB7DEB781E090E00E9425
:100AC000BD0F8C0161E00E94890861E0012B09F4EF
:100AD00060E0CE0101960E94890881E00E9427050E
:100AE00081E080933D019AE090933F0128EE33E04E
:100AF000309342012093410124EF31E030934401CF
:100B0000209343019093400110923E0128EB3BE07B
:100B1000309346012093450180933C0188E090E0AA
:100B20000E942313843669F163E087E090E00E941D
:100B30003D1361E086E090E00E943D1367E085E0B0
:100B400090E00E943D1366E184E090E00E943D1336
:100B500060E083E090E00E943D1367E082E090E077
:100B60000E943D1360E081E090E00E943D1361E04F
:100B700080E090E00E943D1364E688E090E00E94EF
:100B80003D1360E080E10E94221160E081E10E945B
:100B9000221161E08DE00E94221161E081E00E945B
:100BA000221108E111E0780161E0F80181918F01E3
:100BB0000E94221161E0F70180810E945E11F1E044
:100BC0000C311F0781F760E0809118010E945E11CF
:100BD0000CE111E061E0F80181918F010E94221186
:100BE000F1E005321F07B1F783E090E00E94231384
:100BF00080935F0182E090E00E9423138093600164
:100C000081E090E00E9423138093610180E090E0F6
:100C10000E9423138093630186E090E00E942313D7
:100C200080935C0185E090E00E94231380935D0136
:100C300084E090E00E94231380935E0187E090E0BF
:100C40000E942313809378010E94E30110929E0179
:100C500010929F011092A0011092A10184E195E0F1
:100C600090939D0180939C016DE571E08BE791E08D
:100C70000E94DE0966EB70E08BE791E00E94E209DA
:100C800066E677E08BE791E00E94E60963E777E0AC
:100C90008BE791E00E94EA096EE170E08BE791E05A
:100CA0000E94D20968EC70E08BE791E00E94D609BF
:100CB00060919C0170919D018BE791E00E94DA099F
:100CC0001092500181E080934F010E948A1060933E
:100CD00054017093550180935601909357010F90E2
:100CE000DF91CF911F910F91FF90EF900895E091C8
:100CF00050018E2F90E0FC013197ED30F10508F0A6
:100D0000B4C0E25BFF4F0C94EA11609158018DEA88
:100D100091E00E949008482F62E0A0C060915801C5
:100D20008DEA91E00E949008482F61E097C06091A1
:100D300058016093780187E090E00E942B13809126
:100D400078010C94E3016091580160935F0183E0A6
:100D500090E054C0609158016093600182E090E09F
:100D60004DC0609158016093610181E090E046C000
:100D70008091580190915901309162012091630155
:100D8000892B81F041E050E060E070E0032E04C068
:100D9000440F551F661F771F0A94D2F7422B4093CA
:100DA000630110C081E090E0A0E0B0E0032E04C039
:100DB000880F991FAA1FBB1F0A94D2F78095822320
:100DC00080936301363009F050C06091630180E088
:100DD00090E014C06091580160935C0186E090E05F
:100DE0000DC06091580160935D0185E090E006C000
:100DF0006091580160935E0184E090E00C942B13A5
:100E0000609158018DEA91E00E949008482F66E0B9
:100E10000BC06091580113C0609158018DEA91E0B8
:100E20000E949008482F65E08DEA91E00E94D30867
:100E30000E9499039091A601981758F4682F8DEAA3
:100E400091E00E949008482F64E08DEA91E00E94B2
:100E5000D3080E94A9044091A50163E08DEA91E0C6
:100E60000E94D30881E00C94270508958091A20187
:100E7000809352018AE08093530180915001811147
:100E80000E94770680915001873069F0883041F0E8
:100E9000843089F490915F01911113C088E012C0F1
:100EA00090915C01F9CF90916201963050F49F5F70
:100EB0009093620109C08D3021F4109250010C947E
:100EC000D8008F5F809350010C94B2030E943607C4
:100ED0000E948A1060939E0170939F018093A001ED
:100EE0009093A10108950F931F930E948A1000917F
:100EF0009E0110919F012091A0013091A101AB01B1
:100F0000BC01401B510B620B730B80919C019091B3
:100F10009D01092E000CAA0BBB0B481759076A0745
:100F20007B0760F00E9436070E948A1060939E0142
:100F300070939F018093A0019093A1011F910F9145
:100F400008958F929F92AF92BF92CF92DF92EF92CD
:100F5000FF920F931F93CF93DF93EC01898181114F
:100F600006C060E081E00E945E111A8293C0888111
:100F7000882339F081E08A838C8181508B831882A9
:100F800060C08A818823A1F10E948A104B015C0114
:100F90009B01A50160E070E080E090E0AB84BC8440
:100FA000CD84DE84EF84F88809891A890E94F011C3
:100FB000BE80AD801B2D110F110BC12ED12EE12E45
:100FC000F12E012F0E94F91108F464C01A8260E02A
:100FD00081E00E945E110E948A104B015C016B87C8
:100FE0009C86AD86BE861F86188A198A1A8A52C0C8
:100FF0008B81882341F10E948A104B015C019B0187
:10100000A50160E070E080E090E0AB84BC84CD841A
:10101000DE84EF84F88809891A890E94F011B88467
:10102000AF801B2D110F110BC12ED12EE12EF12EF1
:10103000012F0E94F91170F181E08A838B81815028
:101040008B8361E0C5CF89859A85892B19F10E9430
:101050008A104B015C019B01A50160E070E080E01B
:1010600090E0AB84BC84CD84DE84EF84F888098969
:101070001A890E94F011BA84A9841B2D110F110B3B
:10108000C12ED12EE12EF12E012F0E94F91110F068
:1010900081E08883DF91CF911F910F91FF90EF90B6
:1010A000DF90CF90BF90AF909F908F90089580E099
:1010B0000E9427058BE791E00E94C60A909150019B
:1010C0009923B1F080915301811107C0933081F4CD
:1010D000809178010E94E3010BC09091A2012091C0
:1010E0005201921729F0815080935301909352013D
:1010F0000E94FB010E9493018CE391E00C94A107F4
:1011000021E040E050E063E070E08BE791E00C9478
:10111000A309662321F08DE192E00C94DA0D089585
:10112000262F862F6AE00E94B611982F990F890FFB
:10113000880F820F0895982F92959F702AEF929FA3
:10114000800D112408958DE192E00C94DA0DFF9248
:101150000F931F93CF93DF93C62FF42E052F122FDB
:1011600068E670E08DE192E00E94F60D6C2F8DE153
:1011700092E00E949B0DCF2DD02FCE01810F911DAB
:101180008C01C017D10731F069918DE192E00E9486
:101190009B0DF7CF8DE192E0DF91CF911F910F91E1
:1011A000FF900C94750ECF93DF931F92CDB7DEB7EF
:1011B000498321E0AE014F5F5F4F0E94A7080F9067
:1011C000DF91CF910895CF93DF93EC0168E670E053
:1011D0008DE192E00E94F60D60E08DE192E00E94C8
:1011E0009B0D8DE192E00E94750E882319F080938B
:1011F000AE013BC047E050E068E670E08DE192E070
:101200000E94720E8DE192E00E94140D8F770E9471
:101210009B0888838DE192E00E94140D0E949B0838
:1012200089838DE192E00E94140D8F7B0E949B08C0
:101230008A838DE192E00E94140D8B838DE192E010
:101240000E94140D0E949B088C838DE192E00E9405
:10125000140D8F770E949B088D838DE192E00E9490
:10126000140D0E949B088E8380E0DF91CF9108953A
:10127000FF920F931F93CF93DF93C62FF42E052F6A
:10128000122F68E670E08DE192E00E94F60D6C2F5F
:101290008DE192E00E949B0D8DE192E00E94750E1F
:1012A000811116C0412F68E68DE192E00E946F0E19
:1012B000CF2DD02FCE01810F911D8C01C017D107EA
:1012C00031F08DE192E00E94140D8993F7CF80E018
:1012D000DF91CF911F910F91FF900895CF93DF93EE
:1012E0001F92CDB7DEB721E0AE014F5F5F4F0E9486
:1012F000380989810F90DF91CF9108951F93CF9383
:10130000DF93EC0162E10E946E09182F61E1CE01CA
:101310000E946E09212F382F37FF02C0215C3F4FFA
:10132000C90126E0959587952A95E1F7DF91CF9140
:101330001F9108950E947E0997FD039695958795C4
:10134000959587950895FC01862FA2E3B0E0B383BD
:10135000A283A8E5B2E0B583A483A8EEB3E0B78387
:10136000A68312861486138616861586108A17861B
:10137000128A118A148A138A168A158A108E178A7D
:1013800060837183452B19F01186108604C041E0FB
:1013900050E051874087222311F062E001C060E0F5
:1013A0000C942211FC01738362830895FC01758300
:1013B00064830895FC01778366830895FC01748734
:1013C00063870895FC01768765870895FC01728B19
:1013D000618B0895FC01768B658B0895CF92DF9227
:1013E000EF92FF921F93CF93DF93EC01162F0E9491
:1013F0008A106B017C018F89988D009731F411233D
:1014000009F4BCC081E090E078C081309105D9F545
:10141000898D9A8DAB8DBC8DB701A601481B590BE8
:101420006A0B7B0B11110FC08A819B81A0E0B0E099
:10143000481759076A077B0718F4188E1F8A9EC041
:1014400082E090E01DC08E819F81A0E0B0E0841713
:101450009507A607B70708F091C081E08A87EF8556
:10146000F889309709F00995E989FA89309709F0E8
:101470000995ED89FE89309709F0099586E090E09D
:10148000988F8F8B68C082309105F1F58D859E8590
:10149000892B99F0898D9A8DAB8DBC8DB701A601F2
:1014A000481B590B6A0B7B0B8C819D81A0E0B0E03F
:1014B00084179507A607B70738F4EB85FC853097A6
:1014C00009F4BBCF0995B9CF112309F457C08D8D0D
:1014D0009E8DAF8DB8A1B701A601481B590B6A0BB1
:1014E0007B0B8A819B81A0E0B0E084179507A6075B
:1014F000B70708F043C083E090E0988F8F8BC98EC8
:10150000DA8EEB8EFC8E3AC083309105C1F4111156
:1015100035C0898D9A8DAB8DBC8DB701A601481B56
:10152000590B6A0B7B0B8A819B81A0E0B0E084178A
:101530009507A607B70710F5ED85FE8507C0069746
:10154000E9F411110DC01A86EB89FC89309709F076
:101550000995188E1F8ACD8EDE8EEF8EF8A20EC0F2
:1015600081E08A87ED89FE89309741F0DF91CF9144
:101570001F91FF90EF90DF90CF900994DF91CF9172
:101580001F91FF90EF90DF90CF900895CF93DF935E
:10159000EC018881998197FD0EC00E948D1161E058
:1015A000288539852817390709F060E0CE01DF91D9
:1015B000CF910C94EE09DF91CF91089510921C0207
:1015C00081E080931A021092190261E082E10E9488
:1015D0005E1161E083E10E945E11E9EBF0E0808141
:1015E0008E7F808380818D7F808388E48093B800A4
:1015F00085E48093BC000895413208F043C0909187
:101600001C029111FCCF91E090931C0220931A02CE
:101610002FEF2093AF011092F401240F2093F301D8
:1016200090931B0290911B02880F892B80931B02C1
:1016300080911902813061F41092190280911B028D
:101640008093BB008091BC0083FDF8CF85EC01C086
:1016500085EE8093BC0080911C028130E1F3809183
:10166000F401841710F44091F401A5EFB1E0962F36
:10167000FB018E2F891B841718F48D918193F9CF6C
:10168000842F089580E008950F93413208F04AC0F6
:1016900090911C029111FCCF32E030931C02009318
:1016A0001A023FEF3093AF011092F4014093F3011F
:1016B000562FA5EFB1E0FB013E2F351B341718F470
:1016C00031913D93F9CF10921B0230911B02880F8C
:1016D000832B80931B0280911902813061F4109258
:1016E000190280911B028093BB008091BC0083FD96
:1016F000F8CF85EC01C085EE8093BC00222321F059
:1017000080911C028230D1F38091AF018F3F79F03C
:101710008091AF01803241F08091AF01803331F090
:1017200094E005C091E003C092E001C093E0892FEE
:101730000F9108954091D101262F30E0240F311DE3
:1017400021323105DCF420911C022430C9F4FC0163
:1017500080E090E0861758F43091D1012191DC01AE
:10176000AD52BE4FA30FB11D2C930196F3CF8091C4
:10177000D101680F6093D10180E0089581E0089560
:1017800082E0089590931602809315020895909335
:10179000180280931702089585ED8093BC00809114
:1017A000BC0084FDFCCF10921C02089585EC809350
:1017B000BC0010921C0208951F920F920FB60F9258
:1017C00011242F933F934F935F936F937F938F9346
:1017D0009F93AF93BF93EF93FF938091B900887F5E
:1017E000803609F49EC078F5883209F45DC090F423
:1017F000803109F456C038F4882309F4F5C08830E4
:1018000009F44FC0F5C0883109F44EC0803209F4A4
:101810005FC0EEC0803409F46AC058F4803309F424
:1018200057C0883309F0E4C08093AF010E94D60B03
:10183000DFC0803509F44FC0883509F45DC08834B5
:1018400009F0D6C0D3C0883909F4C4C0A8F48837D9
:1018500009F467C038F4883609F463C0803709F4A6
:1018600060C0C6C0883809F4B5C0803909F45FC0CB
:10187000803809F0BDC05BC0803B09F483C038F4F8
:10188000803A09F466C0883A09F47CC0B1C0803C53
:1018900009F4A4C0883C09F4A1C0883B09F487C0BE
:1018A000A7C080911B0210C09091F4018091F301B8
:1018B000981770F5E091F40181E08E0F8093F401A8
:1018C000F0E0EB50FE4F80818093BB0085EC83C03D
:1018D0008093AF018BC0E091F40181E08E0F809383
:1018E000F4018091BB00F0E0EB50FE4F80839091BB
:1018F000F4018091F3016BC0E091F40181E08E0F5F
:101900008093F4018091BB00F0E0EB50FE4F8083A8
:1019100080911A0281116AC081E08093190284EAE1
:101920005EC083E080931C021092B001CFCF809103
:10193000B001803208F04EC0E091B00181E08E0F1E
:101940008093B0018091BB00F0E0EF54FE4F8083A4
:10195000BDCF0E94D60B8091B001803230F4E0916F
:10196000B001F0E0EF54FE4F10826091B00170E0E2
:10197000E0911502F091160281EB91E00995109229
:10198000B00136C084E080931C021092D201109204
:10199000D101E0911702F091180209958091D101CF
:1019A000811105C081E08093D1011092D301E091B3
:1019B000D20181E08E0F8093D201F0E0ED52FE4F14
:1019C00080818093BB009091D2018091D1019817C2
:1019D00008F47CCF85E88093BC000AC085EC809336
:1019E000BC0010921C0204C01092AF010E94CC0BEC
:1019F000FF91EF91BF91AF919F918F917F916F91E7
:101A00005F914F913F912F910F900FBE0F901F90BC
:101A1000189580E090E008958091510290E0209127
:101A20005202821B910908959091520280915102B5
:101A3000981750F4E92FF0E0ED5AFD4F208130E087
:101A40009F5F9093520202C02FEF3FEFC9010895AC
:101A5000E091520280915102E81730F4F0E0ED5A23
:101A6000FD4F808190E008958FEF9FEF08950895D6
:101A7000CF93DF93EC01E0912902F0912A02309795
:101A8000F1F090915202809151029817C0F090E0CD
:101A9000292F30E02617370754F4DE01A20FB31FB9
:101AA0004C91D901AD5ABD4F4C939F5FF1CF10922D
:101AB000520260935102CB01DF91CF910994DF91E3
:101AC000CF910895E0912B02F0912C02309729F0EC
:101AD00010922F0210922E0209940895CF92DF9255
:101AE000EF92FF920F931F93CF93DF937C01CB0173
:101AF0008A0120912D02222389F0EB016B01C40E93
:101B0000D51ECC15DD0569F06991D701ED91FC91E9
:101B10000190F081E02DC7010995F3CF642F0E9459
:101B20009A0BC801DF91CF911F910F91FF90EF9019
:101B3000DF90CF900895CF93DF931F92CDB7DEB79C
:101B4000698320912D022223D1F020912E02203290
:101B500040F021E030E0FC013383228380E090E01C
:101B600015C080912F02E82FF0E0E05DFD4F9981D4
:101B700090838F5F80932F0280932E0205C061E0D7
:101B8000CE0101960E949A0B81E090E00F90DF91C8
:101B9000CF910895FC011382128288EE93E0A0E0B9
:101BA000B0E084839583A683B7838DE291E091832F
:101BB00080830895109252021092510210922F02C7
:101BC00010922E020E94DE0A82E69DE00E94C70B60
:101BD00088E39DE00C94C20B81E080932D0260931A
:101BE000500210922F0210922E0208950C94EC0DC8
:101BF0000F93062F21E040912E0260E372E0809166
:101C000050020E94440B10922F0210922E0210924A
:101C10002D020F9108954F925F926F927F92AF9233
:101C2000BF92CF92EF92FF920F931F93CF93DF93C8
:101C30005C01F62ED42F28013901EE2021F10E94FB
:101C4000EC0DCE2DC43008F0C3E0C150C0F028E048
:101C5000C29FC0011124A301920104C0569547956B
:101C6000379527958A95D2F7CA01B901D501ED912B
:101C7000FC910190F081E02DC5010995E6CF60E06F
:101C8000C5010E94F80D4D2FD13208F040E22C2DF5
:101C900063E572E08F2D0E94FC0A1092520280933D
:101CA0005102DF91CF911F910F91FF90EF90CF9054
:101CB000BF90AF907F906F905F904F900895CF92BC
:101CC000EF920F931F93C22EE12C00E010E09801D9
:101CD0000E940B0E1F910F91EF90CF90089521E07D
:101CE0000C945F0E21E00C945F0E61E00C94F80DF3
:101CF0008DE192E00C94CA0D0E94830E6894B1119C
:101D00000C94120F08950E94F70E88F09F5798F0D8
:101D1000B92F9927B751B0F0E1F0660F771F881FF0
:101D2000991F1AF0BA95C9F714C0B13091F00E940A
:101D3000110FB1E008950C94110F672F782F8827A9
:101D4000B85F39F0B93FCCF3869577956795B39531
:101D5000D9F73EF490958095709561957F4F8F4FA0
:101D60009F4F0895E89409C097FB3EF490958095A5
:101D7000709561957F4F8F4F9F4F9923A9F0F92F51
:101D800096E9BB279395F695879577956795B795CF
:101D9000F111F8CFFAF4BB0F11F460FF1BC06F5FB5
:101DA0007F4F8F4F9F4F16C0882311F096E911C0C7
:101DB000772321F09EE8872F762F05C0662371F0E8
:101DC00096E8862F70E060E02AF09A95660F771FFC
:101DD000881FDAF7880F9695879597F9089557FD2C
:101DE0009058440F551F59F05F3F71F04795880F89
:101DF00097FB991F61F09F3F79F087950895121620
:101E000013061406551FF2CF4695F1DF08C01616CB
:101E100017061806991FF1CF86957105610508947C
:101E20000895E894BB2766277727CB0197F9089593
:101E30000E942B0F0C949C0F0E948E0F38F00E9472
:101E4000950F20F0952311F00C94850F0C948B0FB7
:101E500011240C94120F0E94EF0E70F3959FC1F3A2
:101E6000950F50E0551F629FF001729FBB27F00D48
:101E7000B11D639FAA27F00DB11DAA1F649F66279D
:101E8000B00DA11D661F829F2227B00DA11D621FEC
:101E9000739FB00DA11D621F839FA00D611D221FA6
:101EA000749F3327A00D611D231F849F600D211D8A
:101EB000822F762F6A2F11249F5750409AF0F1F00D
:101EC00088234AF0EE0FFF1FBB1F661F771F881F76
:101ED00091505040A9F79E3F510580F00C94850F1A
:101EE0000C94120F5F3FE4F3983ED4F386957795F8
:101EF0006795B795F795E7959F5FC1F7FE2B880F1C
:101F0000911D9695879597F9089597F99F6780E8B1
:101F100070E060E008959FEF80EC089500240A943B
:101F20001616170618060906089500240A941216B4
:101F30001306140605060895092E0394000C11F4E7
:101F4000882352F0BB0F40F4BF2B11F460FF04C094
:101F50006F5F7F4F8F4F9F4F089508950E94A1108C
:101F60000E94AD0F0E945405C0E0D0E00E945708C7
:101F70002097E1F30E940000F9CF0C94021208951B
:101F80008230E8F4E82FF0E0EE0FFF1FEC5DFE4F2B
:101F900071836083813041F0809169008C7F482B90
:101FA00040936900E89A089580916900837F440F07
:101FB000551F440F551F482B40936900E99A089517
:101FC000823078F4813011F0E89801C0E998E82F68
:101FD000F0E0EE0FFF1FEC5DFE4F8FEB9FE0918373
:101FE000808308951F920F920FB60F9211242F93A2
:101FF0003F934F935F936F937F938F939F93AF9391
:10200000BF93EF93FF93E0912401F091250109958F
:10201000FF91EF91BF91AF919F918F917F916F91C0
:102020005F914F913F912F910F900FBE0F901F9096
:1020300018951F920F920FB60F9211242F933F9372
:102040004F935F936F937F938F939F93AF93BF93C0
:10205000EF93FF93E0912601F09127010995FF91FD
:10206000EF91BF91AF919F918F917F916F915F9110
:102070004F913F912F910F900FBE0F901F90189589
:102080001F920F920FB60F9211242F933F938F93AD
:102090009F93AF93BF938091740290917502A0912A
:1020A0007602B09177023091730223E0230F2D372F
:1020B00020F40196A11DB11D05C026E8230F02964C
:1020C000A11DB11D20937302809374029093750239
:1020D000A0937602B0937702809178029091790272
:1020E000A0917A02B0917B020196A11DB11D80934F
:1020F000780290937902A0937A02B0937B02BF9109
:10210000AF919F918F913F912F910F900FBE0F90A4
:102110001F9018952FB7F894609174027091750212
:1021200080917602909177022FBF089582309105B9
:1021300038F0880F991F880F991F05970197F1F7BD
:102140000895789484B5826084BD84B5816084BD2F
:1021500085B5826085BD85B5816085BDEEE6F0E020
:10216000808181608083E1E8F0E01082808182607C
:102170008083808181608083E0E8F0E080818160FD
:102180008083E1EBF0E0808184608083E0EBF0E02D
:10219000808181608083EAE7F0E0808184608083D1
:1021A000808182608083808181608083808180687B
:1021B00080831092C10008958E3008F08E502091D7
:1021C000280190E4299F900111248770822B80932D
:1021D0007C0080917A00806480937A0080917A00FC
:1021E00086FDFCCF809178002091790090E0922BC1
:1021F0000895833081F028F4813099F08230A1F085
:1022000008958730A9F08830B9F08430D1F48091F6
:1022100080008F7D03C0809180008F778093800045
:10222000089584B58F7702C084B58F7D84BD0895ED
:102230008091B0008F7703C08091B0008F7D809334
:10224000B0000895CF93DF9390E0FC01E653FF4F79
:102250002491FC01E252FF4F8491882361F190E0C8
:10226000880F991FFC01EA5FFE4FC591D491FC01D4
:10227000E450FF4FA591B491611109C09FB7F89444
:102280008881209582238883EC912E230BC06230B5
:1022900061F49FB7F8948881322F30958323888327
:1022A000EC912E2B2C939FBF06C08FB7F894E8813A
:1022B0002E2B28838FBFDF91CF9108951F93CF934B
:1022C000DF93282F30E0F901EA54FF4F8491F901A0
:1022D000E653FF4FD491F901E252FF4FC491CC2352
:1022E000C1F0162F81110E94F910EC2FF0E0EE0FD3
:1022F000FF1FE450FF4FA591B4919FB7F8941111BF
:1023000004C08C91D095D82302C0EC91DE2BDC93D5
:102310009FBFDF91CF911F910895CF93DF93282F17
:1023200030E0F901EA54FF4F8491F901E653FF4F81
:10233000D491F901E252FF4FC491CC2391F0811165
:102340000E94F910EC2FF0E0EE0FFF1FEE50FF4F50
:10235000A591B491EC91ED2381E090E021F480E02F
:1023600002C080E090E0DF91CF910895991B79E061
:1023700004C0991F961708F0961B881F7A95C9F715
:1023800080950895AA1BBB1B51E107C0AA1FBB1F64
:10239000A617B70710F0A61BB70B881F991F5A95F1
:1023A000A9F780959095BC01CD01089597FB072E64
:1023B00016F4009407D077FD09D00E94C21107FCE3
:1023C00005D03EF4909581959F4F08957095619545
:1023D0007F4F0895EE0FFF1F0590F491E02D0994B3
:1023E0002A193B094C095D096E097F09800B910B85
:1023F00008952A153B054C055D056E057F05800790
:10240000910708950F931F93CF93DF938230910527
:1024100010F482E090E0E0917E02F0917F0220E0F3
:1024200030E0A0E0B0E0309719F1408151810281A5
:10243000138148175907C8F08417950769F4109756
:1024400031F012960C93129713961C9327C00093A9
:102450007E0210937F0222C02115310519F0421728
:10246000530718F49A01BD01EF01DF01F801DBCF3A
:1024700021153105F9F0281B390B2430310580F482
:102480008A819B816115710521F0FB019383828311
:1024900004C090937F0280937E02FE01329644C076
:1024A000FE01E20FF31F819391932250310939838A
:1024B00028833AC020917C0230917D02232B41F485
:1024C000209102013091030130937D0220937C0220
:1024D00020910001309101012115310541F42DB702
:1024E0003EB74091040150910501241B350BE0914A
:1024F0007C02F0917D02E217F307A0F42E1B3F0B44
:102500002817390778F0AC014E5F5F4F2417350765
:1025100048F04E0F5F1F50937D0240937C028193E1
:10252000919302C0E0E0F0E0CF01DF91CF911F91E5
:102530000F910895CF93DF93009709F481C0FC01B8
:10254000329713821282A0917E02B0917F0210977F
:1025500081F420813181820F931F20917C02309180
:102560007D022817390751F5F0937D02E0937C0234
:1025700067C0ED0120E030E0CE17DF0740F44A816C
:102580005B819E0141155105F1F0EA01F5CFD3833E
:10259000C28340815181840F951FC817D90759F410
:1025A00088819981840F951F0296918380838A8107
:1025B0009B81938382832115310529F4F0937F0257
:1025C000E0937E023DC0E901FB83EA834991599182
:1025D000C40FD51FEC17FD0761F480819181840F32
:1025E000951F0296E90199838883828193819B8359
:1025F0008A83E0E0F0E012968D919C91139700970A
:1026000019F0FD01DC01F7CF8D919C9111979D018F
:102610002E5F3F4F820F931F20917C0230917D02ED
:102620002817390769F4309729F410927F02109225
:102630007E0202C013821282B0937D02A0937C02BC
:10264000DF91CF910895F999FECF92BD81BDF89A9F
:10265000992780B50895262FF999FECF92BD81BDA7
:10266000F89A019700B4021639F01FBA20BD0FB6D0
:10267000F894FA9AF99A0FBE0895262FF999FECF89
:102680001FBA92BD81BD20BD0FB6F894FA9AF99A8F
:0A2690000FBE01960895F894FFCFE5
:10269A00000080022000005F3D770F4E470E7E301B
:1026AA006D79335B5F707F7B0E0F0C0D0A0908078B
:1026BA000605040BBF0FBF0F01000000009B0D6E43
:0C26CA000D090D370D0C0D140D280D002E
:00000001FF
